{
  "_format": "hh-sol-artifact-1",
  "contractName": "AcademintNFT",
  "sourceName": "contracts/AcademintNFT.sol",
  "abi": [
    {
      "inputs": [],
      "stateMutability": "nonpayable",
      "type": "constructor"
    },
    {
      "anonymous": false,
      "inputs": [
        {
          "indexed": true,
          "internalType": "address",
          "name": "owner",
          "type": "address"
        },
        {
          "indexed": true,
          "internalType": "address",
          "name": "approved",
          "type": "address"
        },
        {
          "indexed": true,
          "internalType": "uint256",
          "name": "tokenId",
          "type": "uint256"
        }
      ],
      "name": "Approval",
      "type": "event"
    },
    {
      "anonymous": false,
      "inputs": [
        {
          "indexed": true,
          "internalType": "address",
          "name": "owner",
          "type": "address"
        },
        {
          "indexed": true,
          "internalType": "address",
          "name": "operator",
          "type": "address"
        },
        {
          "indexed": false,
          "internalType": "bool",
          "name": "approved",
          "type": "bool"
        }
      ],
      "name": "ApprovalForAll",
      "type": "event"
    },
    {
      "anonymous": false,
      "inputs": [
        {
          "indexed": false,
          "internalType": "address",
          "name": "sender",
          "type": "address"
        },
        {
          "indexed": false,
          "internalType": "uint256",
          "name": "tokenId",
          "type": "uint256"
        }
      ],
      "name": "NewEpicNFTMinted",
      "type": "event"
    },
    {
      "anonymous": false,
      "inputs": [
        {
          "indexed": true,
          "internalType": "address",
          "name": "from",
          "type": "address"
        },
        {
          "indexed": true,
          "internalType": "address",
          "name": "to",
          "type": "address"
        },
        {
          "indexed": true,
          "internalType": "uint256",
          "name": "tokenId",
          "type": "uint256"
        }
      ],
      "name": "Transfer",
      "type": "event"
    },
    {
      "inputs": [
        {
          "internalType": "address",
          "name": "to",
          "type": "address"
        },
        {
          "internalType": "uint256",
          "name": "tokenId",
          "type": "uint256"
        }
      ],
      "name": "approve",
      "outputs": [],
      "stateMutability": "nonpayable",
      "type": "function"
    },
    {
      "inputs": [
        {
          "internalType": "address",
          "name": "owner",
          "type": "address"
        }
      ],
      "name": "balanceOf",
      "outputs": [
        {
          "internalType": "uint256",
          "name": "",
          "type": "uint256"
        }
      ],
      "stateMutability": "view",
      "type": "function"
    },
    {
      "inputs": [
        {
          "internalType": "uint256",
          "name": "tokenId",
          "type": "uint256"
        }
      ],
      "name": "getApproved",
      "outputs": [
        {
          "internalType": "address",
          "name": "",
          "type": "address"
        }
      ],
      "stateMutability": "view",
      "type": "function"
    },
    {
      "inputs": [
        {
          "internalType": "address",
          "name": "owner",
          "type": "address"
        },
        {
          "internalType": "address",
          "name": "operator",
          "type": "address"
        }
      ],
      "name": "isApprovedForAll",
      "outputs": [
        {
          "internalType": "bool",
          "name": "",
          "type": "bool"
        }
      ],
      "stateMutability": "view",
      "type": "function"
    },
    {
      "inputs": [],
      "name": "makeAnEpicNFT",
      "outputs": [],
      "stateMutability": "nonpayable",
      "type": "function"
    },
    {
      "inputs": [],
      "name": "name",
      "outputs": [
        {
          "internalType": "string",
          "name": "",
          "type": "string"
        }
      ],
      "stateMutability": "view",
      "type": "function"
    },
    {
      "inputs": [
        {
          "internalType": "uint256",
          "name": "tokenId",
          "type": "uint256"
        }
      ],
      "name": "ownerOf",
      "outputs": [
        {
          "internalType": "address",
          "name": "",
          "type": "address"
        }
      ],
      "stateMutability": "view",
      "type": "function"
    },
    {
      "inputs": [
        {
          "internalType": "address",
          "name": "from",
          "type": "address"
        },
        {
          "internalType": "address",
          "name": "to",
          "type": "address"
        },
        {
          "internalType": "uint256",
          "name": "tokenId",
          "type": "uint256"
        }
      ],
      "name": "safeTransferFrom",
      "outputs": [],
      "stateMutability": "nonpayable",
      "type": "function"
    },
    {
      "inputs": [
        {
          "internalType": "address",
          "name": "from",
          "type": "address"
        },
        {
          "internalType": "address",
          "name": "to",
          "type": "address"
        },
        {
          "internalType": "uint256",
          "name": "tokenId",
          "type": "uint256"
        },
        {
          "internalType": "bytes",
          "name": "data",
          "type": "bytes"
        }
      ],
      "name": "safeTransferFrom",
      "outputs": [],
      "stateMutability": "nonpayable",
      "type": "function"
    },
    {
      "inputs": [
        {
          "internalType": "address",
          "name": "operator",
          "type": "address"
        },
        {
          "internalType": "bool",
          "name": "approved",
          "type": "bool"
        }
      ],
      "name": "setApprovalForAll",
      "outputs": [],
      "stateMutability": "nonpayable",
      "type": "function"
    },
    {
      "inputs": [
        {
          "internalType": "bytes4",
          "name": "interfaceId",
          "type": "bytes4"
        }
      ],
      "name": "supportsInterface",
      "outputs": [
        {
          "internalType": "bool",
          "name": "",
          "type": "bool"
        }
      ],
      "stateMutability": "view",
      "type": "function"
    },
    {
      "inputs": [],
      "name": "symbol",
      "outputs": [
        {
          "internalType": "string",
          "name": "",
          "type": "string"
        }
      ],
      "stateMutability": "view",
      "type": "function"
    },
    {
      "inputs": [
        {
          "internalType": "uint256",
          "name": "tokenId",
          "type": "uint256"
        }
      ],
      "name": "tokenURI",
      "outputs": [
        {
          "internalType": "string",
          "name": "",
          "type": "string"
        }
      ],
      "stateMutability": "view",
      "type": "function"
    },
    {
      "inputs": [
        {
          "internalType": "address",
          "name": "from",
          "type": "address"
        },
        {
          "internalType": "address",
          "name": "to",
          "type": "address"
        },
        {
          "internalType": "uint256",
          "name": "tokenId",
          "type": "uint256"
        }
      ],
      "name": "transferFrom",
      "outputs": [],
      "stateMutability": "nonpayable",
      "type": "function"
    }
  ],
  "bytecode": "0x60806040523480156200001157600080fd5b506040518060400160405280600981526020017f41636164656d696e7400000000000000000000000000000000000000000000008152506040518060400160405280600781526020017f4143414d494e5400000000000000000000000000000000000000000000000000815250816000908051906020019062000096929190620001cf565b508060019080519060200190620000af929190620001cf565b505050620000fd6040518060400160405280601f81526020017f41636164656d696e74204e465420636f6e7472616374206465706c6f796564008152506200010360201b62000b0e1760201c565b620003ac565b620001a3816040516024016200011a9190620002c0565b6040516020818303038152906040527f41304fac000000000000000000000000000000000000000000000000000000007bffffffffffffffffffffffffffffffffffffffffffffffffffffffff19166020820180517bffffffffffffffffffffffffffffffffffffffffffffffffffffffff8381831617835250505050620001a660201b60201c565b50565b60008151905060006a636f6e736f6c652e6c6f679050602083016000808483855afa5050505050565b828054620001dd9062000336565b90600052602060002090601f0160209004810192826200020157600085556200024d565b82601f106200021c57805160ff19168380011785556200024d565b828001600101855582156200024d579182015b828111156200024c5782518255916020019190600101906200022f565b5b5090506200025c919062000260565b5090565b5b808211156200027b57600081600090555060010162000261565b5090565b60006200028c82620002e4565b620002988185620002ef565b9350620002aa81856020860162000300565b620002b5816200039b565b840191505092915050565b60006020820190508181036000830152620002dc81846200027f565b905092915050565b600081519050919050565b600082825260208201905092915050565b60005b838110156200032057808201518184015260208101905062000303565b8381111562000330576000848401525b50505050565b600060028204905060018216806200034f57607f821691505b602082108114156200036657620003656200036c565b5b50919050565b7f4e487b7100000000000000000000000000000000000000000000000000000000600052602260045260246000fd5b6000601f19601f8301169050919050565b612a4c80620003bc6000396000f3fe608060405234801561001057600080fd5b50600436106100ea5760003560e01c806370a082311161008c578063b88d4fde11610066578063b88d4fde1461025b578063c87b56dd14610277578063de9d132f146102a7578063e985e9c5146102b1576100ea565b806370a08231146101f157806395d89b4114610221578063a22cb4651461023f576100ea565b8063095ea7b3116100c8578063095ea7b31461016d57806323b872dd1461018957806342842e0e146101a55780636352211e146101c1576100ea565b806301ffc9a7146100ef57806306fdde031461011f578063081812fc1461013d575b600080fd5b61010960048036038101906101049190611d0c565b6102e1565b60405161011691906120af565b60405180910390f35b6101276103c3565b60405161013491906120ca565b60405180910390f35b61015760048036038101906101529190611d5e565b610455565b604051610164919061201f565b60405180910390f35b61018760048036038101906101829190611cd0565b61049b565b005b6101a3600480360381019061019e9190611bca565b6105b3565b005b6101bf60048036038101906101ba9190611bca565b610613565b005b6101db60048036038101906101d69190611d5e565b610633565b6040516101e8919061201f565b60405180910390f35b61020b60048036038101906102069190611b65565b6106e5565b60405161021891906122aa565b60405180910390f35b61022961079d565b60405161023691906120ca565b60405180910390f35b61025960048036038101906102549190611c94565b61082f565b005b61027560048036038101906102709190611c19565b610845565b005b610291600480360381019061028c9190611d5e565b6108a7565b60405161029e91906120ca565b60405180910390f35b6102af6109ba565b005b6102cb60048036038101906102c69190611b8e565b610a7a565b6040516102d891906120af565b60405180910390f35b60007f80ac58cd000000000000000000000000000000000000000000000000000000007bffffffffffffffffffffffffffffffffffffffffffffffffffffffff1916827bffffffffffffffffffffffffffffffffffffffffffffffffffffffff191614806103ac57507f5b5e139f000000000000000000000000000000000000000000000000000000007bffffffffffffffffffffffffffffffffffffffffffffffffffffffff1916827bffffffffffffffffffffffffffffffffffffffffffffffffffffffff1916145b806103bc57506103bb82610ba7565b5b9050919050565b6060600080546103d2906124cf565b80601f01602080910402602001604051908101604052809291908181526020018280546103fe906124cf565b801561044b5780601f106104205761010080835404028352916020019161044b565b820191906000526020600020905b81548152906001019060200180831161042e57829003601f168201915b5050505050905090565b600061046082610c11565b6004600083815260200190815260200160002060009054906101000a900473ffffffffffffffffffffffffffffffffffffffff169050919050565b60006104a682610633565b90508073ffffffffffffffffffffffffffffffffffffffff168373ffffffffffffffffffffffffffffffffffffffff161415610517576040517f08c379a000000000000000000000000000000000000000000000000000000000815260040161050e9061226a565b60405180910390fd5b8073ffffffffffffffffffffffffffffffffffffffff16610536610c5c565b73ffffffffffffffffffffffffffffffffffffffff16148061056557506105648161055f610c5c565b610a7a565b5b6105a4576040517f08c379a000000000000000000000000000000000000000000000000000000000815260040161059b9061220a565b60405180910390fd5b6105ae8383610c64565b505050565b6105c46105be610c5c565b82610d1d565b610603576040517f08c379a00000000000000000000000000000000000000000000000000000000081526004016105fa9061228a565b60405180910390fd5b61060e838383610db2565b505050565b61062e83838360405180602001604052806000815250610845565b505050565b6000806002600084815260200190815260200160002060009054906101000a900473ffffffffffffffffffffffffffffffffffffffff169050600073ffffffffffffffffffffffffffffffffffffffff168173ffffffffffffffffffffffffffffffffffffffff1614156106dc576040517f08c379a00000000000000000000000000000000000000000000000000000000081526004016106d39061224a565b60405180910390fd5b80915050919050565b60008073ffffffffffffffffffffffffffffffffffffffff168273ffffffffffffffffffffffffffffffffffffffff161415610756576040517f08c379a000000000000000000000000000000000000000000000000000000000815260040161074d906121ca565b60405180910390fd5b600360008373ffffffffffffffffffffffffffffffffffffffff1673ffffffffffffffffffffffffffffffffffffffff168152602001908152602001600020549050919050565b6060600180546107ac906124cf565b80601f01602080910402602001604051908101604052809291908181526020018280546107d8906124cf565b80156108255780601f106107fa57610100808354040283529160200191610825565b820191906000526020600020905b81548152906001019060200180831161080857829003601f168201915b5050505050905090565b61084161083a610c5c565b8383611019565b5050565b610856610850610c5c565b83610d1d565b610895576040517f08c379a000000000000000000000000000000000000000000000000000000000815260040161088c9061228a565b60405180910390fd5b6108a184848484611186565b50505050565b60606108b282610c11565b60006006600084815260200190815260200160002080546108d2906124cf565b80601f01602080910402602001604051908101604052809291908181526020018280546108fe906124cf565b801561094b5780601f106109205761010080835404028352916020019161094b565b820191906000526020600020905b81548152906001019060200180831161092e57829003601f168201915b50505050509050600061095c6111e2565b90506000815114156109725781925050506109b5565b6000825111156109a757808260405160200161098f929190611ffb565b604051602081830303815290604052925050506109b5565b6109b0846111f9565b925050505b919050565b60006109c66007611261565b90506109d2338261126f565b610a11816040518060400160405280601d81526020017f68747470733a2f2f6a736f6e6b65657065722e636f6d2f622f365a484200000081525061128d565b610a346040518060600160405280602581526020016129f2602591398233611301565b610a3e60076113a0565b7febb98688741ffa4c7589bf325de30cf7becb63de567842e1ccdb6cb949fdc82c3382604051610a6f929190612086565b60405180910390a150565b6000600560008473ffffffffffffffffffffffffffffffffffffffff1673ffffffffffffffffffffffffffffffffffffffff16815260200190815260200160002060008373ffffffffffffffffffffffffffffffffffffffff1673ffffffffffffffffffffffffffffffffffffffff16815260200190815260200160002060009054906101000a900460ff16905092915050565b610ba481604051602401610b2291906120ca565b6040516020818303038152906040527f41304fac000000000000000000000000000000000000000000000000000000007bffffffffffffffffffffffffffffffffffffffffffffffffffffffff19166020820180517bffffffffffffffffffffffffffffffffffffffffffffffffffffffff83818316178352505050506113b6565b50565b60007f01ffc9a7000000000000000000000000000000000000000000000000000000007bffffffffffffffffffffffffffffffffffffffffffffffffffffffff1916827bffffffffffffffffffffffffffffffffffffffffffffffffffffffff1916149050919050565b610c1a816113df565b610c59576040517f08c379a0000000000000000000000000000000000000000000000000000000008152600401610c509061224a565b60405180910390fd5b50565b600033905090565b816004600083815260200190815260200160002060006101000a81548173ffffffffffffffffffffffffffffffffffffffff021916908373ffffffffffffffffffffffffffffffffffffffff160217905550808273ffffffffffffffffffffffffffffffffffffffff16610cd783610633565b73ffffffffffffffffffffffffffffffffffffffff167f8c5be1e5ebec7d5bd14f71427d1e84f3dd0314c0f7b2291e5b200ac8c7c3b92560405160405180910390a45050565b600080610d2983610633565b90508073ffffffffffffffffffffffffffffffffffffffff168473ffffffffffffffffffffffffffffffffffffffff161480610d6b5750610d6a8185610a7a565b5b80610da957508373ffffffffffffffffffffffffffffffffffffffff16610d9184610455565b73ffffffffffffffffffffffffffffffffffffffff16145b91505092915050565b8273ffffffffffffffffffffffffffffffffffffffff16610dd282610633565b73ffffffffffffffffffffffffffffffffffffffff1614610e28576040517f08c379a0000000000000000000000000000000000000000000000000000000008152600401610e1f9061214a565b60405180910390fd5b600073ffffffffffffffffffffffffffffffffffffffff168273ffffffffffffffffffffffffffffffffffffffff161415610e98576040517f08c379a0000000000000000000000000000000000000000000000000000000008152600401610e8f9061218a565b60405180910390fd5b610ea383838361144b565b610eae600082610c64565b6001600360008573ffffffffffffffffffffffffffffffffffffffff1673ffffffffffffffffffffffffffffffffffffffff1681526020019081526020016000206000828254610efe91906123e5565b925050819055506001600360008473ffffffffffffffffffffffffffffffffffffffff1673ffffffffffffffffffffffffffffffffffffffff1681526020019081526020016000206000828254610f55919061235e565b92505081905550816002600083815260200190815260200160002060006101000a81548173ffffffffffffffffffffffffffffffffffffffff021916908373ffffffffffffffffffffffffffffffffffffffff160217905550808273ffffffffffffffffffffffffffffffffffffffff168473ffffffffffffffffffffffffffffffffffffffff167fddf252ad1be2c89b69c2b068fc378daa952ba7f163c4a11628f55a4df523b3ef60405160405180910390a4611014838383611450565b505050565b8173ffffffffffffffffffffffffffffffffffffffff168373ffffffffffffffffffffffffffffffffffffffff161415611088576040517f08c379a000000000000000000000000000000000000000000000000000000000815260040161107f906121aa565b60405180910390fd5b80600560008573ffffffffffffffffffffffffffffffffffffffff1673ffffffffffffffffffffffffffffffffffffffff16815260200190815260200160002060008473ffffffffffffffffffffffffffffffffffffffff1673ffffffffffffffffffffffffffffffffffffffff16815260200190815260200160002060006101000a81548160ff0219169083151502179055508173ffffffffffffffffffffffffffffffffffffffff168373ffffffffffffffffffffffffffffffffffffffff167f17307eab39ab6107e8899845ad3d59bd9653f200f220920489ca2b5937696c318360405161117991906120af565b60405180910390a3505050565b611191848484610db2565b61119d84848484611455565b6111dc576040517f08c379a00000000000000000000000000000000000000000000000000000000081526004016111d39061212a565b60405180910390fd5b50505050565b606060405180602001604052806000815250905090565b606061120482610c11565b600061120e6111e2565b9050600081511161122e5760405180602001604052806000815250611259565b80611238846115ec565b604051602001611249929190611ffb565b6040516020818303038152906040525b915050919050565b600081600001549050919050565b611289828260405180602001604052806000815250611799565b5050565b611296826113df565b6112d5576040517f08c379a00000000000000000000000000000000000000000000000000000000081526004016112cc906121ea565b60405180910390fd5b806006600084815260200190815260200160002090805190602001906112fc9291906119f1565b505050565b61139b838383604051602401611319939291906120ec565b6040516020818303038152906040527fe3849f79000000000000000000000000000000000000000000000000000000007bffffffffffffffffffffffffffffffffffffffffffffffffffffffff19166020820180517bffffffffffffffffffffffffffffffffffffffffffffffffffffffff83818316178352505050506113b6565b505050565b6001816000016000828254019250508190555050565b60008151905060006a636f6e736f6c652e6c6f679050602083016000808483855afa5050505050565b60008073ffffffffffffffffffffffffffffffffffffffff166002600084815260200190815260200160002060009054906101000a900473ffffffffffffffffffffffffffffffffffffffff1673ffffffffffffffffffffffffffffffffffffffff1614159050919050565b505050565b505050565b60006114768473ffffffffffffffffffffffffffffffffffffffff166117f4565b156115df578373ffffffffffffffffffffffffffffffffffffffff1663150b7a0261149f610c5c565b8786866040518563ffffffff1660e01b81526004016114c1949392919061203a565b602060405180830381600087803b1580156114db57600080fd5b505af192505050801561150c57506040513d601f19601f820116820180604052508101906115099190611d35565b60015b61158f573d806000811461153c576040519150601f19603f3d011682016040523d82523d6000602084013e611541565b606091505b50600081511415611587576040517f08c379a000000000000000000000000000000000000000000000000000000000815260040161157e9061212a565b60405180910390fd5b805181602001fd5b63150b7a0260e01b7bffffffffffffffffffffffffffffffffffffffffffffffffffffffff1916817bffffffffffffffffffffffffffffffffffffffffffffffffffffffff1916149150506115e4565b600190505b949350505050565b60606000821415611634576040518060400160405280600181526020017f30000000000000000000000000000000000000000000000000000000000000008152509050611794565b600082905060005b6000821461166657808061164f90612532565b915050600a8261165f91906123b4565b915061163c565b60008167ffffffffffffffff8111156116a8577f4e487b7100000000000000000000000000000000000000000000000000000000600052604160045260246000fd5b6040519080825280601f01601f1916602001820160405280156116da5781602001600182028036833780820191505090505b5090505b6000851461178d576001826116f391906123e5565b9150600a85611702919061257b565b603061170e919061235e565b60f81b81838151811061174a577f4e487b7100000000000000000000000000000000000000000000000000000000600052603260045260246000fd5b60200101907effffffffffffffffffffffffffffffffffffffffffffffffffffffffffffff1916908160001a905350600a8561178691906123b4565b94506116de565b8093505050505b919050565b6117a38383611817565b6117b06000848484611455565b6117ef576040517f08c379a00000000000000000000000000000000000000000000000000000000081526004016117e69061212a565b60405180910390fd5b505050565b6000808273ffffffffffffffffffffffffffffffffffffffff163b119050919050565b600073ffffffffffffffffffffffffffffffffffffffff168273ffffffffffffffffffffffffffffffffffffffff161415611887576040517f08c379a000000000000000000000000000000000000000000000000000000000815260040161187e9061222a565b60405180910390fd5b611890816113df565b156118d0576040517f08c379a00000000000000000000000000000000000000000000000000000000081526004016118c79061216a565b60405180910390fd5b6118dc6000838361144b565b6001600360008473ffffffffffffffffffffffffffffffffffffffff1673ffffffffffffffffffffffffffffffffffffffff168152602001908152602001600020600082825461192c919061235e565b92505081905550816002600083815260200190815260200160002060006101000a81548173ffffffffffffffffffffffffffffffffffffffff021916908373ffffffffffffffffffffffffffffffffffffffff160217905550808273ffffffffffffffffffffffffffffffffffffffff16600073ffffffffffffffffffffffffffffffffffffffff167fddf252ad1be2c89b69c2b068fc378daa952ba7f163c4a11628f55a4df523b3ef60405160405180910390a46119ed60008383611450565b5050565b8280546119fd906124cf565b90600052602060002090601f016020900481019282611a1f5760008555611a66565b82601f10611a3857805160ff1916838001178555611a66565b82800160010185558215611a66579182015b82811115611a65578251825591602001919060010190611a4a565b5b509050611a739190611a77565b5090565b5b80821115611a90576000816000905550600101611a78565b5090565b6000611aa7611aa2846122ea565b6122c5565b905082815260208101848484011115611abf57600080fd5b611aca84828561248d565b509392505050565b600081359050611ae181612995565b92915050565b600081359050611af6816129ac565b92915050565b600081359050611b0b816129c3565b92915050565b600081519050611b20816129c3565b92915050565b600082601f830112611b3757600080fd5b8135611b47848260208601611a94565b91505092915050565b600081359050611b5f816129da565b92915050565b600060208284031215611b7757600080fd5b6000611b8584828501611ad2565b91505092915050565b60008060408385031215611ba157600080fd5b6000611baf85828601611ad2565b9250506020611bc085828601611ad2565b9150509250929050565b600080600060608486031215611bdf57600080fd5b6000611bed86828701611ad2565b9350506020611bfe86828701611ad2565b9250506040611c0f86828701611b50565b9150509250925092565b60008060008060808587031215611c2f57600080fd5b6000611c3d87828801611ad2565b9450506020611c4e87828801611ad2565b9350506040611c5f87828801611b50565b925050606085013567ffffffffffffffff811115611c7c57600080fd5b611c8887828801611b26565b91505092959194509250565b60008060408385031215611ca757600080fd5b6000611cb585828601611ad2565b9250506020611cc685828601611ae7565b9150509250929050565b60008060408385031215611ce357600080fd5b6000611cf185828601611ad2565b9250506020611d0285828601611b50565b9150509250929050565b600060208284031215611d1e57600080fd5b6000611d2c84828501611afc565b91505092915050565b600060208284031215611d4757600080fd5b6000611d5584828501611b11565b91505092915050565b600060208284031215611d7057600080fd5b6000611d7e84828501611b50565b91505092915050565b611d9081612419565b82525050565b611d9f8161242b565b82525050565b6000611db08261231b565b611dba8185612331565b9350611dca81856020860161249c565b611dd381612668565b840191505092915050565b6000611de982612326565b611df38185612342565b9350611e0381856020860161249c565b611e0c81612668565b840191505092915050565b6000611e2282612326565b611e2c8185612353565b9350611e3c81856020860161249c565b80840191505092915050565b6000611e55603283612342565b9150611e6082612679565b604082019050919050565b6000611e78602583612342565b9150611e83826126c8565b604082019050919050565b6000611e9b601c83612342565b9150611ea682612717565b602082019050919050565b6000611ebe602483612342565b9150611ec982612740565b604082019050919050565b6000611ee1601983612342565b9150611eec8261278f565b602082019050919050565b6000611f04602983612342565b9150611f0f826127b8565b604082019050919050565b6000611f27602e83612342565b9150611f3282612807565b604082019050919050565b6000611f4a603e83612342565b9150611f5582612856565b604082019050919050565b6000611f6d602083612342565b9150611f78826128a5565b602082019050919050565b6000611f90601883612342565b9150611f9b826128ce565b602082019050919050565b6000611fb3602183612342565b9150611fbe826128f7565b604082019050919050565b6000611fd6602e83612342565b9150611fe182612946565b604082019050919050565b611ff581612483565b82525050565b60006120078285611e17565b91506120138284611e17565b91508190509392505050565b60006020820190506120346000830184611d87565b92915050565b600060808201905061204f6000830187611d87565b61205c6020830186611d87565b6120696040830185611fec565b818103606083015261207b8184611da5565b905095945050505050565b600060408201905061209b6000830185611d87565b6120a86020830184611fec565b9392505050565b60006020820190506120c46000830184611d96565b92915050565b600060208201905081810360008301526120e48184611dde565b905092915050565b600060608201905081810360008301526121068186611dde565b90506121156020830185611fec565b6121226040830184611d87565b949350505050565b6000602082019050818103600083015261214381611e48565b9050919050565b6000602082019050818103600083015261216381611e6b565b9050919050565b6000602082019050818103600083015261218381611e8e565b9050919050565b600060208201905081810360008301526121a381611eb1565b9050919050565b600060208201905081810360008301526121c381611ed4565b9050919050565b600060208201905081810360008301526121e381611ef7565b9050919050565b6000602082019050818103600083015261220381611f1a565b9050919050565b6000602082019050818103600083015261222381611f3d565b9050919050565b6000602082019050818103600083015261224381611f60565b9050919050565b6000602082019050818103600083015261226381611f83565b9050919050565b6000602082019050818103600083015261228381611fa6565b9050919050565b600060208201905081810360008301526122a381611fc9565b9050919050565b60006020820190506122bf6000830184611fec565b92915050565b60006122cf6122e0565b90506122db8282612501565b919050565b6000604051905090565b600067ffffffffffffffff82111561230557612304612639565b5b61230e82612668565b9050602081019050919050565b600081519050919050565b600081519050919050565b600082825260208201905092915050565b600082825260208201905092915050565b600081905092915050565b600061236982612483565b915061237483612483565b9250827fffffffffffffffffffffffffffffffffffffffffffffffffffffffffffffffff038211156123a9576123a86125ac565b5b828201905092915050565b60006123bf82612483565b91506123ca83612483565b9250826123da576123d96125db565b5b828204905092915050565b60006123f082612483565b91506123fb83612483565b92508282101561240e5761240d6125ac565b5b828203905092915050565b600061242482612463565b9050919050565b60008115159050919050565b60007fffffffff0000000000000000000000000000000000000000000000000000000082169050919050565b600073ffffffffffffffffffffffffffffffffffffffff82169050919050565b6000819050919050565b82818337600083830152505050565b60005b838110156124ba57808201518184015260208101905061249f565b838111156124c9576000848401525b50505050565b600060028204905060018216806124e757607f821691505b602082108114156124fb576124fa61260a565b5b50919050565b61250a82612668565b810181811067ffffffffffffffff8211171561252957612528612639565b5b80604052505050565b600061253d82612483565b91507fffffffffffffffffffffffffffffffffffffffffffffffffffffffffffffffff8214156125705761256f6125ac565b5b600182019050919050565b600061258682612483565b915061259183612483565b9250826125a1576125a06125db565b5b828206905092915050565b7f4e487b7100000000000000000000000000000000000000000000000000000000600052601160045260246000fd5b7f4e487b7100000000000000000000000000000000000000000000000000000000600052601260045260246000fd5b7f4e487b7100000000000000000000000000000000000000000000000000000000600052602260045260246000fd5b7f4e487b7100000000000000000000000000000000000000000000000000000000600052604160045260246000fd5b6000601f19601f8301169050919050565b7f4552433732313a207472616e7366657220746f206e6f6e20455243373231526560008201527f63656976657220696d706c656d656e7465720000000000000000000000000000602082015250565b7f4552433732313a207472616e736665722066726f6d20696e636f72726563742060008201527f6f776e6572000000000000000000000000000000000000000000000000000000602082015250565b7f4552433732313a20746f6b656e20616c7265616479206d696e74656400000000600082015250565b7f4552433732313a207472616e7366657220746f20746865207a65726f2061646460008201527f7265737300000000000000000000000000000000000000000000000000000000602082015250565b7f4552433732313a20617070726f766520746f2063616c6c657200000000000000600082015250565b7f4552433732313a2061646472657373207a65726f206973206e6f74206120766160008201527f6c6964206f776e65720000000000000000000000000000000000000000000000602082015250565b7f45524337323155524953746f726167653a2055524920736574206f66206e6f6e60008201527f6578697374656e7420746f6b656e000000000000000000000000000000000000602082015250565b7f4552433732313a20617070726f76652063616c6c6572206973206e6f7420746f60008201527f6b656e206f776e6572206e6f7220617070726f76656420666f7220616c6c0000602082015250565b7f4552433732313a206d696e7420746f20746865207a65726f2061646472657373600082015250565b7f4552433732313a20696e76616c696420746f6b656e2049440000000000000000600082015250565b7f4552433732313a20617070726f76616c20746f2063757272656e74206f776e6560008201527f7200000000000000000000000000000000000000000000000000000000000000602082015250565b7f4552433732313a2063616c6c6572206973206e6f7420746f6b656e206f776e6560008201527f72206e6f7220617070726f766564000000000000000000000000000000000000602082015250565b61299e81612419565b81146129a957600080fd5b50565b6129b58161242b565b81146129c057600080fd5b50565b6129cc81612437565b81146129d757600080fd5b50565b6129e381612483565b81146129ee57600080fd5b5056fe416e204e465420772f20494420257320686173206265656e206d696e74656420746f202573a2646970667358221220cdc6452eaef0b94bfa8283363183c736858657240660714abbd98fe572a2d13364736f6c63430008010033",
  "linkReferences": {},
  "deployedLinkReferences": {}
}